:020000040800F2
:10000000005000204D0F00084D0A0008550A000856
:100010005D0A0008650A00086D0A0008000000007B
:10002000000000000000000000000000750A000849
:10003000810A0008000000008D0A0008990A0008E3
:10004000950F0008950F0008950F0008950F000800
:10005000950F0008950F0008950F0008950F0008F0
:10006000950F0008950F0008950F0008950F0008E0
:10007000950F0008950F0008950F0008950F0008D0
:10008000950F0008950F0008950F0008A50A0008B5
:10009000B90A0008CD0A0008E10A0008950F000817
:1000A000950F0008F50A0008950F0008950F000845
:1000B000090B00081D0B0008950F0008950F00089C
:1000C000950F0008950F0008950F0008950F000880
:1000D000950F0008310B0008950F0008950F0008D8
:1000E000950F0008950F0008950F0008000000000C
:1000F0000000000000000000000000000000000000
:0C01000000000000000000005FF808F1A3
:10010C0010B5054C237833B9044B13B10448AFF345
:10011C0000800123237010BD5C0000200000000053
:10012C00CC54000808B5034B1BB103490348AFF38B
:10013C00008008BD0000000060000020CC540008C6
:10014C00034613F8012B002AFBD1181A013870470B
:10015C0080B483B000AF0346FB80FB881B021AB24D
:10016C00FB881B0A9BB21BB213431BB29BB21846F3
:10017C000C37BD4680BC704780B584B000AF224BB5
:10018C001B68224A5360204B1B68214A93421BD0A8
:10019C001F4A93421DD81F4A934211D01D4A9342C5
:1001AC0017D81D4A934203D01C4A934204D010E046
:1001BC00154B1A4A1A600CE0134B164A1A6008E0E9
:1001CC00114B134A1A6004E00F4B4FF0FF321A60C8
:1001DC0000BF00237B600023BB60114801F00FFAC5
:1001EC000346002B0BD007F10C033A1D07490C48B2
:1001FC0001F036F90346002B01D000F0E8FB00BFFC
:10020C001037BD4680BD00BF7800002014010020CF
:10021C004001931840019218400190184001911828
:10022C003C01002080B400AF094B08221A61084B36
:10023C004FF0FF325A60064B04229A60044B0022A6
:10024C00DA60034B00221A7500BFBD4680BC7047B4
:10025C001401002080B584B000AF78607A6807F193
:10026C0008031068516803C33B891846FFF770FFF9
:10027C000346184604F078FA7B891846FFF768FFA6
:10028C000346A3F51C53103B184604F07FFABB89B8
:10029C001846FFF75DFF0346184604F089FABB8940
:1002AC001846FFF755FF03461A46064BA3FB0223DD
:1002BC00DB089BB2184604F08DFA00BF1037BD4620
:1002CC0080BD00BFCDCCCCCC80B584B000AF786005
:1002DC007A6807F108031068516803C3FB7B03F0CD
:1002EC001803DBB2002B03D10D4804F097FA12E08F
:1002FC00FB7B03F01803DBB2082B03D1094804F095
:10030C008DFA08E0FB7B03F01803DBB2102B02D153
:10031C00054804F083FA00BF1037BD4680BD00BF0E
:10032C00E4540008EC540008F854000880B582B07E
:10033C0000AF164804F0E9FB78607B68002B20D0F6
:10034C007B681B68B3F5985F0DD0B3F5A05F15D132
:10035C007B6804331846FFF77DFF00F06FFE034601
:10036C000B4A13600AE07B6804331846FFF7ACFFB6
:10037C0000F064FE0346074A136000BF034804F014
:10038C0093FB00BF0837BD4680BD00BF7C0000203A
:10039C002C0100203001002080B500AF00F04EFE93
:1003AC0002461A4B1B68D31A41F28832934207D982
:1003BC0004F0DAFA00F042FE0346144A136022E01D
:1003CC0000F03CFE0246124B1B68D31A41F28832F5
:1003DC00934207D904F0D8FA00F030FE03460C4AD9
:1003EC00136010E000F02AFE02460A4B1B68D31A79
:1003FC0041F28832934206D904F0D0FA00F01EFE86
:10040C000346044A136000BF80BD00BF2C010020CE
:10041C00300100203401002080B582B000AF78603C
:10042C007B681B68164A934205D1164B164A1A6014
:10043C00FFF7A2FE1FE07B681B68B3F1804F11D160
:10044C00124804F0D9F9124B93F83D30DBB2012B72
:10045C0011D0002220210F4801F098FF0C4802F027
:10046C00C9FC08E07B681B680B4A934203D120212E
:10047C00084801F0A3FF00BF0837BD4680BD00BF90
:10048C00002C014078000020400190180455000811
:10049C0004020020000801400004004080B582B036
:1004AC0000AF7860054B1B68B3F1FF3F01D0FFF73D
:1004BC0063FE00BF0837BD4680BD00BF780000203A
:1004CC0080B582B000AF7860054B1B68B3F1FF3F7D
:1004DC0001D0FFF751FE00BF0837BD4680BD00BFFD
:1004EC007800002080B582B000AF7860054B1B68A7
:1004FC00B3F1FF3F01D0FFF73FFE00BF0837BD4609
:10050C0080BD00BF7800002080B58CB000AF786053
:10051C000023FB6000233B6107F10C0307F114027D
:10052C000021786801F09FF80346002B01D000F001
:10053C004EFABB6907F10C021946034804F07BFA2A
:10054C0000BF3037BD4680BD7C00002080B500AFB9
:10055C00134B4FF0FF321A60FFF764FE0C22114967
:10056C00114804F02BFA04F031F804F0D5F900F03E
:10057C0065FD03460D4A136000F060FD03460C4A0E
:10058C00136000F05BFD03460A4A136000F056FD51
:10059C000346094A1360094804F02EF900BF80BDD8
:1005AC0078000020840000207C0000202C0100201A
:1005BC0030010020340100203801002014550008BF
:1005CC0080B594B000AF0123BB640023FB63002310
:1005DC00BB6300233B6401237B640023BB624FF4A9
:1005EC001843FB6200233B634FF6F8737B630123D4
:1005FC003B6201237B6100233B610023BB61012330
:10060C00FB6100233B604FF420437B600023BB6005
:10061C004FF6F873FB6007F128031946174800F0F2
:10062C0012FE0346002B01D000F0D1F93B461946CF
:10063C00124800F008FE0346002B01D000F0C7F969
:10064C0002210E4801F030F90346002B01D000F0D6
:10065C00BEF90121094801F027F90346002B01D00E
:10066C0000F0B5F9054800F0B7FE0346002B01D0A9
:10067C0000F0ADF900BF5037BD4680BD3C010020F5
:10068C0080B500AF0B4802F063FB0346002B01D092
:10069C0000F09DF9084B1B686FF001021A610648C7
:1006AC0002F056FB0346002B01D000F090F900BF7E
:1006BC0080BD00BF74010020BC01002080B500AFDC
:1006CC00FFF76AFE0A4804F094F9034683F001032D
:1006DC00DBB2002B08D0FFF729FE064B1B6800226B
:1006EC005A62054804F088F8044801F0C2FEE7E7B6
:1006FC007C000020BC01002014550008640100207F
:10070C0080B500AF174B184A1A60164B08225A6076
:10071C00144B00229A60134B0022DA60114B4FF4F9
:10072C0040221A610F4B4FF480125A610D4B00227C
:10073C001A760C4B00225A760A4B00229A76094BF9
:10074C000022DA76074B00221A77064B00225A77E2
:10075C00044800F07DFC0346002B01D000F037F973
:10076C0000BF80BD3C0100200064004080B588B013
:10077C0000AF786007F1100300221A605A609A608B
:10078C00DA607B681B682C4A934251D12B4BDB6996
:10079C002A4A43F00073D361284BDB6903F00073E2
:1007AC00FB60FB68254B9B69244A43F0040393616F
:1007BC00224B9B6903F00403BB60BB684FF40063DE
:1007CC003B6100237B610023BB6107F110031946D9
:1007DC001B4801F057FC4FF480533B6102237B61B3
:1007EC000323FB6107F110031946154801F04AFC7D
:1007FC0000220021132001F05CFB132001F075FB9B
:10080C0000220021142001F054FB142001F06DFB98
:10081C0000220021152001F04CFB152001F065FB96
:10082C0000220021162001F044FB162001F05DFB94
:10083C0000BF2037BD4680BD006400400010024060
:10084C000008014080B588B000AF07F1100300220A
:10085C001A605A609A60DA601D4B9B691C4A43F01F
:10086C00100393611A4B9B6903F01003FB60FB6848
:10087C00174B9B69164A43F020039361144B9B69F9
:10088C0003F02003BB60BB68114B9B69104A43F01B
:10089C00040393610E4B9B6903F004037B607B683C
:1008AC00002220210B4801F071FD20233B61012324
:1008BC007B610023BB610223FB6107F11003194626
:1008CC00044801F0DFFB00BF2037BD4680BD00BFF0
:1008DC00001002400008014080B500AF094B0A4AE5
:1008EC001A60084B03225A60064B4FF47A629A60E6
:1008FC00044801F07CFD0346002B01D000F067F8A2
:10090C0000BF80BD640100200030004080B500AF06
:10091C0000F03CFB00F018F8FFF794FFFFF7F0FE37
:10092C0000F090FA00F044F900F094F9FFF7D4FFCE
:10093C0000F0DEF9FFF70AFEFFF742FEFFF7A0FE1C
:10094C00FFF7BCFE00BFFDE780B590B000AF07F12C
:10095C00180328220021184604F0C8F93B1D002278
:10096C001A605A609A60DA601A610A23BB6101232B
:10097C00BB621023FB6201233B6302237B630023D6
:10098C00BB634FF46013FB6307F11803184601F0C7
:10099C007FFD0346002B01D000F019F80F237B607C
:1009AC000223BB600023FB604FF480633B61002398
:1009BC007B613B1D0221184601F0ECFF0346002B26
:1009CC0001D000F004F800BF4037BD4680BD80B4B4
:1009DC0000AF72B600BF00BFFDE7000080B485B069
:1009EC0000AF154B9B69144A43F001039361124B02
:1009FC009B6903F00103BB60BB680F4BDB690E4ABC
:100A0C0043F08053D3610C4BDB6903F080537B6064
:100A1C007B680A4B5B68FB60FB6823F0E063FB6060
:100A2C00FB6843F00073FB60044AFB68536000BF33
:100A3C001437BD4680BC70470010024000000140D6
:100A4C0080B400AF00BFFDE780B400AF00BFFDE78E
:100A5C0080B400AF00BFFDE780B400AF00BFFDE77E
:100A6C0080B400AF00BFFDE780B400AF00BFBD464F
:100A7C0080BC704780B400AF00BFBD4680BC7047DF
:100A8C0080B400AF00BFBD4680BC704780B500AFDE
:100A9C0000F0C2FA00BF80BD80B500AF024800F084
:100AAC0028FF00BF80BD00BF3C01002080B500AF17
:100ABC00024800F01EFF00BF80BD00BF3C010020BB
:100ACC0080B500AF024800F014FF00BF80BD00BF2E
:100ADC003C01002080B500AF024800F00AFF00BFC7
:100AEC0080BD00BF3C01002080B500AF024802F081
:100AFC00AFF900BF80BD00BF7401002080B500AF0E
:100B0C00024802F0A5F900BF80BD00BFBC01002067
:100B1C0080B500AF024802F09BF900BF80BD00BF5A
:100B2C000402002080B500AF024802F0E5FD00BFD2
:100B3C0080BD00BF4C02002080B586B000AF78604D
:100B4C00144A154BD31A7B617B693B61134B1B68B1
:100B5C00002B02D1114B124A1A60104B1A687B6899
:100B6C0013443A699A4207D204F0D8F803460C228F
:100B7C001A604FF0FF3309E0084B1B68FB60074B12
:100B8C001A687B681344054A1360FB6818461837CB
:100B9C00BD4680BD00500020000400007001002004
:100BAC008005002080B400AF00BFBD4680BC7047FC
:100BBC0080B586B000AF07F1080300221A605A60B6
:100BCC009A60DA603B4600221A605A601F4B204A3A
:100BDC001A601E4B4FF4C8525A601C4B00229A608C
:100BEC001A4B41F28832DA60184B00221A61174B0B
:100BFC0000225A61154B00229A61144802F058F8F1
:100C0C000346002B01D0FFF7E2FE4FF48053BB608C
:100C1C0007F1080319460D4802F022FA0346002B8F
:100C2C0001D0FFF7D4FE00233B6000237B603B46E2
:100C3C001946064802F0F8FB0346002B01D0FFF7DB
:100C4C00C6FE00BF1837BD4680BD00BF7401002032
:100C5C00002C014080B586B000AF07F108030022DC
:100C6C001A605A609A60DA603B4600221A605A6039
:100C7C001E4B4FF080421A601C4B4FF47A425A6064
:100C8C001A4B00229A60194B41F28832DA60174BEA
:100C9C0000221A61154B00229A61144802F008F8E0
:100CAC000346002B01D0FFF792FE4FF48053BB603C
:100CBC0007F1080319460D4802F0D2F90346002B40
:100CCC0001D0FFF784FE00233B6000237B603B4692
:100CDC001946064802F0A8FB0346002B01D0FFF78B
:100CEC0076FE00BF1837BD4680BD00BFBC0100209A
:100CFC0080B586B000AF07F1080300221A605A6075
:100D0C009A60DA603B4600221A605A601D4B1E4AFC
:100D1C001A601C4B4FF47A425A601A4B00229A60AC
:100D2C00184B4FF4FA62DA60164B00221A61154B1D
:100D3C0000229A61134801F0BBFF0346002B01D03F
:100D4C00FFF745FE4FF48053BB6007F108031946CB
:100D5C000C4802F085F90346002B01D0FFF737FE53
:100D6C0000233B6000237B603B461946054802F09C
:100D7C005BFB0346002B01D0FFF729FE00BF1837A1
:100D8C00BD4680BD040200200004004080B586B042
:100D9C0000AF78607B681B68274A934214D1274BBD
:100DAC009B69264A43F400639361244B9B6903F4CB
:100DBC0000637B617B6900220021192001F079F826
:100DCC00192001F092F832E07B681B68B3F1804F78
:100DDC0014D11A4BDB69194A43F00103D361174B49
:100DEC00DB6903F001033B613B69002200211C20FD
:100DFC0001F05FF81C2001F078F818E07B681B68A4
:100E0C000F4A934213D10D4BDB690C4A43F002039A
:100E1C00D3610A4BDB6903F00203FB60FB68002221
:100E2C0000211D2001F045F81D2001F05EF800BFE7
:100E3C001837BD4680BD00BF002C01400010024099
:100E4C000004004080B500AF114B124A1A60104BE1
:100E5C004FF416525A600E4B00229A600C4B002233
:100E6C00DA600B4B00221A61094B0C225A61084BB9
:100E7C0000229A61064B0022DA61054802F044FB1D
:100E8C000346002B01D0FFF7A2FD00BF80BD00BFC1
:100E9C004C0200200038014080B588B000AF78606B
:100EAC0007F1100300221A605A609A60DA607B68BE
:100EBC001B68204A934239D11F4B9B691E4A43F44D
:100ECC00804393611C4B9B6903F48043FB60FB687C
:100EDC00194B9B69184A43F004039361164B9B69A9
:100EEC0003F00403BB60BB684FF400733B61022347
:100EFC007B610323FB6107F1100319460F4801F0D6
:100F0C00C1F84FF480633B6100237B610023BB611C
:100F1C0007F110031946094801F0B4F8002200212A
:100F2C00252000F0C6FF252000F0DFFF00BF203792
:100F3C00BD4680BD00380140001002400008014051
:100F4C00FFF730FE0B480C490C4A002302E0D45842
:100F5C00C4500433C4188C42F9D3094A094C0023F9
:100F6C0001E013600432A242FBD303F0DDFEFFF775
:100F7C00CDFC7047000000205C0000209456000857
:100F8C005C00002080050020FEE7000080B500AF6B
:100F9C00084B1B68074A43F010031360032000F052
:100FAC007DFF0F2000F008F8FFF718FD002318460E
:100FBC0080BD00BF0020024080B582B000AF7860D9
:100FCC00124B1A68124B1B7819464FF47A73B3FB09
:100FDC00F1F3B2FBF3F3184600F095FF0346002B38
:100FEC0001D001230EE07B680F2B0AD80022796810
:100FFC004FF0FF3000F05DFF064A7B681360002362
:10100C0000E0012318460837BD4680BD00000020D3
:10101C00080000200400002080B400AF054B1B78B2
:10102C001A46054B1B681344034A136000BFBD46A8
:10103C0080BC7047080000209402002080B400AFF0
:10104C00024B1B681846BD4680BC704794020020BA
:10105C0080B584B000AF78607B68002B01D1012390
:10106C00EDE07B6893F82030DBB2002B02D178687E
:10107C00FFF77CFB7B681B681A687B681B6842F077
:10108C0001021A60FFF7DAFFF86012E0FFF7D6FFF3
:10109C000246FB68D31A0A2B0BD97B685B6A43F4B4
:1010AC0000327B685A627B68052283F8202001237A
:1010BC00C5E07B681B685B6803F00103002BE5D07F
:1010CC007B681B681A687B681B6822F002021A6036
:1010DC00FFF7B4FFF86012E0FFF7B0FF0246FB68C1
:1010EC00D31A0A2B0BD97B685B6A43F400327B68FA
:1010FC005A627B68052283F8202001239FE07B68DD
:10110C001B685B6803F00203002BE5D17B681B7E38
:10111C00012B08D17B681B681A687B681B6842F03E
:10112C0080021A6007E07B681B681A687B681B6882
:10113C0022F080021A607B685B7E012B08D17B68F1
:10114C001B681A687B681B6842F040021A6007E053
:10115C007B681B681A687B681B6822F040021A6067
:10116C007B689B7E012B08D17B681B681A687B68A7
:10117C001B6842F020021A6007E07B681B681A6843
:10118C007B681B6822F020021A607B68DB7E012BD7
:10119C0008D17B681B681A687B681B6822F01002F8
:1011AC001A6007E07B681B681A687B681B6842F052
:1011BC0010021A607B681B7F012B08D17B681B68AF
:1011CC001A687B681B6842F008021A6007E07B68AB
:1011DC001B681A687B681B6822F008021A607B681F
:1011EC005B7F012B08D17B681B681A687B681B68C6
:1011FC0042F004021A6007E07B681B681A687B687F
:10120C001B6822F004021A607B689A687B68DB68B2
:10121C001A437B681B691A437B685B6942EA0301CA
:10122C007B685B685A1E7B681B680A43DA617B68C3
:10123C0000225A627B68012283F820200023184682
:10124C001037BD4680BD80B487B000AF7860396080
:10125C007B681B687B617B6893F82030FB74FB7C9C
:10126C00012B03D0FB7C022B40F0AA807B69D3F8C6
:10127C00003243F001027B69C3F800223B685B69D2
:10128C0003F01F03012202FA03F3FB607B69D3F81E
:10129C001C22FB68DB431A407B69C3F81C223B68A9
:1012AC00DB69002B23D17B69D3F80C22FB68DB4371
:1012BC001A407B69C3F80C223B68DB6819043B6855
:1012CC005B689BB23A68526919437B69483243F8B0
:1012DC0032103B689B6819043B681B689AB23B68E8
:1012EC005B690A4379694833DB000B445A603B68FD
:1012FC00DB69012B22D17B69D3F80C22FB681A43E2
:10130C007B69C3F80C223B681B6819043B685B685B
:10131C009BB23A68526919437B69483243F83210E0
:10132C003B689B6819043B68DB689AB23B685B6955
:10133C000A4379694833DB000B445A603B689B696C
:10134C00002B09D17B69D3F80422FB68DB431A40DC
:10135C007B69C3F8042207E07B69D3F80422FB689D
:10136C001A437B69C3F804223B681B69002B09D123
:10137C007B69D3F81422FB68DB431A407B69C3F802
:10138C00142207E07B69D3F81422FB681A437B69AB
:10139C00C3F814223B681B6A012B07D17B69D3F875
:1013AC001C22FB681A437B69C3F81C227B69D3F8A7
:1013BC00003223F001027B69C3F80022002306E00F
:1013CC007B685B6A43F480227B685A62012318466F
:1013DC001C37BD4680BC704780B584B000AF7860C8
:1013EC007B6893F82030DBB2012B2ED17B68022274
:1013FC0083F820207B681B681A687B681B6822F0C6
:10140C0001021A60FFF71AFEF86012E0FFF716FEF1
:10141C000246FB68D31A0A2B0BD97B685B6A43F430
:10142C0000327B685A627B68052283F820200123F6
:10143C0012E07B681B685B6803F00103002BE5D1AD
:10144C007B6800225A62002306E07B685B6A43F4E7
:10145C0000227B685A62012318461037BD4680BDB6
:10146C0080B489B000AFF860B9607A603B60FB680B
:10147C0093F82030FB77FB681B689B68BB61FB7F94
:10148C00012B03D0FB7F022B40F0AD80BB6903F036
:10149C008063002B0AD1BB6903F00063002B05D1DC
:1014AC00BB6903F08053002B00F09580BB691B0EC9
:1014BC0003F003037B6101227B699A403B681A604D
:1014CC00BB689B68002B0DD1BB681B685A05BB68B9
:1014DC00DB68F96809681A437B6918331B010B44F4
:1014EC001A600FE0BB685B68DA00BB689B681A4344
:1014FC00BB68DB68F96809681A437B6918331B0100
:10150C000B441A60FB681968BB681A697B6918334D
:10151C001B010B4404331A60BB681B7D012B11D1DA
:10152C00FB681A687B6918331B01134404331B686E
:10153C00FA68116843F480727B6918331B010B4401
:10154C0004331A607B6807331B781A067B680633F2
:10155C001B781B041A437B6805331B781B0213434F
:10156C007A68043212781046FA68116843EA00026D
:10157C007B691B010B4403F5C6731A607B6803334C
:10158C001B781A067B6802331B781B041A437B6892
:10159C0001331B781B0213437A6812781046FA68E1
:1015AC00116843EA00027B691B010B4403F5C47309
:1015BC001A60FB681A687B6918331B0113441B689B
:1015CC00FA68116843F001027B6918331B010B4464
:1015DC001A6000230EE0FB685B6A43F40012FB68A0
:1015EC005A62012306E0FB685B6A43F48022FB68C5
:1015FC005A62012318462437BD4680BC704780B41C
:10160C0085B000AF78600023FB607B6893F82030D6
:10161C00FB72FB7A012B02D0FB7A022B1DD17B686B
:10162C001B689B6803F08063002B02D0FB680133BE
:10163C00FB607B681B689B6803F00063002B02D087
:10164C00FB680133FB607B681B689B6803F080536D
:10165C00002B02D0FB680133FB60FB681846143783
:10166C00BD4680BC704780B487B000AFF860B960ED
:10167C007A603B60FB6893F82030FB75FB7D012B97
:10168C0003D0FB7D022B40F00381BB68002B0ED1F5
:10169C00FB681B68DB6803F00303002B16D1FB68A7
:1016AC005B6A43F40012FB685A620123F7E0FB68A3
:1016BC001B681B6903F00303002B07D1FB685B6AF3
:1016CC0043F40012FB685A620123E8E0FB681A68D5
:1016DC00BB681B331B0113441B6803F004027B68BB
:1016EC009A607B689B68002B0CD1FB681A68BB68FE
:1016FC001B331B0113441B685B0DC3F30A027B688D
:10170C001A600BE0FB681A68BB681B331B0113449F
:10171C001B68DB0823F060427B685A60FB681A6820
:10172C00BB681B331B0113441B6803F002027B686C
:10173C00DA60FB681A68BB681B331B011344043363
:10174C001B6803F00803002B03D07B6808221A6186
:10175C000BE0FB681A68BB681B331B011344043392
:10176C001B6803F00F027B681A61FB681A68BB6880
:10177C001B331B01134404331B681B0ADAB27B684E
:10178C009A61FB681A68BB681B331B011344043352
:10179C001B681B0C9AB27B685A61FB681A68BB68A1
:1017AC001B01134403F5DC731B68DAB23B681A7037
:1017BC00FB681A68BB681B01134403F5DC731B68D8
:1017CC001A0A3B680133D2B21A70FB681A68BB68FC
:1017DC001B01134403F5DC731B681A0C3B680233C2
:1017EC00D2B21A70FB681A68BB681B01134403F56C
:1017FC00DC731B681A0E3B680333D2B21A70FB6899
:10180C001A68BB681B01134403F5DE731A683B6846
:10181C000433D2B21A70FB681A68BB681B011344FC
:10182C0003F5DE731B681A0A3B680533D2B21A70D3
:10183C00FB681A68BB681B01134403F5DE731B6855
:10184C001A0C3B680633D2B21A70FB681A68BB6874
:10185C001B01134403F5DE731B681A0E3B68073338
:10186C00D2B21A70BB68002B08D1FB681B68DA680F
:10187C00FB681B6842F02002DA6007E0FB681B681B
:10188C001A69FB681B6842F020021A61002306E00B
:10189C00FB685B6A43F48022FB685A62012318469A
:1018AC001C37BD4680BC704780B485B000AF7860F3
:1018BC0039607B6893F82030FB73FB7B012B02D0E3
:1018CC00FB7B022B09D17B681B6859697B681B6801
:1018DC003A680A435A61002306E07B685B6A43F46A
:1018EC0080227B685A62012318461437BD4680BC9F
:1018FC00704780B58AB000AF786000237B627B684C
:10190C001B685B693B627B681B685B68FB617B687F
:10191C001B689B68BB617B681B68DB687B617B68B1
:10192C001B681B693B617B681B689B69FB603B6A9E
:10193C0003F00103002B7CD0BB6903F00103002BE7
:10194C0023D07B681B6801229A60BB6903F00203F9
:10195C00002B03D07868FEF7A1FD16E0BB6903F0FD
:10196C000403002B04D07B6A43F400637B620CE01D
:10197C00BB6903F00803002B04D07B6A43F480534B
:10198C007B6202E0786800F06BF9BB6903F480734A
:10199C00002B24D07B681B684FF480729A60BB6963
:1019AC0003F40073002B03D07868FEF789FD16E072
:1019BC00BB6903F48063002B04D07B6A43F40053AF
:1019CC007B620CE0BB6903F40063002B04D07B6AE0
:1019DC0043F480437B6202E0786800F04AF9BB690B
:1019EC0003F48033002B24D07B681B684FF48032C7
:1019FC009A60BB6903F40033002B03D07868FEF7C0
:101A0C0071FD16E0BB6903F48023002B04D07B6AC4
:101A1C0043F400437B620CE0BB6903F40023002B0E
:101A2C0004D07B6A43F480337B6202E0786800F078
:101A3C0029F93B6A03F00803002B0CD07B6903F0F7
:101A4C001003002B07D07B6A43F400737B627B6826
:101A5C001B681022DA603B6A03F00403002B0BD0E6
:101A6C007B6903F00803002B06D07B681B680822F7
:101A7C00DA60786800F00FF93B6A03F00203002B80
:101A8C0009D07B681B68DB6803F00303002B02D0D2
:101A9C007868FEF739FD3B6A03F04003002B0CD04D
:101AAC003B6903F01003002B07D07B6A43F480637F
:101ABC007B627B681B6810221A613B6A03F020036F
:101ACC00002B0BD03B6903F00803002B06D07B687E
:101ADC001B6808221A61786800F0EFF83B6A03F083
:101AEC001003002B09D07B681B681B6903F00303F0
:101AFC00002B02D0786800F0D7F83B6A03F400336F
:101B0C00002B0BD0FB6903F01003002B06D07B6875
:101B1C001B6810225A60786800F0D8F83B6A03F40E
:101B2C008033002B0BD0FB6903F00803002B06D08D
:101B3C007B681B6808225A60786800F0D0F83B6A12
:101B4C0003F40043002B7BD0FB6903F00403002B50
:101B5C0072D03B6A03F48073002B08D0FB6803F04F
:101B6C000103002B03D07B6A43F001037B623B6AC9
:101B7C0003F40073002B08D0FB6803F00203002B66
:101B8C0003D07B6A43F002037B623B6A03F48063FD
:101B9C00002B08D0FB6803F00403002B03D07B6AF6
:101BAC0043F004037B623B6A03F40063002B43D0D5
:101BBC00FB6803F07003002B3ED0FB6803F070034E
:101BCC00602B2BD0602B2ED8502B22D0502B2AD808
:101BDC00402B19D0402B26D8302B10D0302B22D8AC
:101BEC00102B02D0202B05D01DE07B6A43F008039C
:101BFC007B6219E07B6A43F010037B6214E07B6A22
:101C0C0043F020037B620FE07B6A43F040037B626E
:101C1C000AE07B6A43F080037B6205E07B6A43F455
:101C2C0080737B6200E000BF7B681B689A697B68ED
:101C3C001B6822F070029A617B681B6804225A6050
:101C4C007B6A002B08D07B685A6A7B6A1A437B68D4
:101C5C005A62786800F04CF800BF2837BD4680BD4A
:101C6C0080B483B000AF786000BF0C37BD4680BC39
:101C7C00704780B483B000AF786000BF0C37BD46AE
:101C8C0080BC704780B483B000AF786000BF0C3765
:101C9C00BD4680BC704780B483B000AF786000BF95
:101CAC000C37BD4680BC704780B483B000AF786001
:101CBC0000BF0C37BD4680BC704780B483B000AF0A
:101CCC00786000BF0C37BD4680BC704780B483B0D1
:101CDC0000AF786000BF0C37BD4680BC704780B445
:101CEC0083B000AF786000BF0C37BD4680BC704736
:101CFC0080B483B000AF786000BF0C37BD4680BCA9
:101D0C007047000080B485B000AF78607B6803F04A
:101D1C000703FB600C4BDB68BB60BA684FF6FF0334
:101D2C001340BB60FB681A02BB68134343F0BF63EC
:101D3C0043F40033BB60044ABB68D36000BF143764
:101D4C00BD4680BC704700BF00ED00E080B400AF22
:101D5C00044BDB681B0A03F007031846BD4680BC26
:101D6C00704700BF00ED00E080B483B000AF0346C5
:101D7C00FB7197F90730002B0BDBFB7903F01F028B
:101D8C00064997F907305B09012000FA02F241F885
:101D9C00232000BF0C37BD4680BC704700E100E03B
:101DAC0080B483B000AF03463960FB7197F90730FC
:101DBC00002B0ADB3B68DAB20C4997F907301201A9
:101DCC00D2B20B4483F800230AE03B68DAB208492C
:101DDC00FB7903F00F03043B1201D2B20B441A76C9
:101DEC0000BF0C37BD4680BC704700BF00E100E06F
:101DFC0000ED00E080B489B000AFF860B9607A60A3
:101E0C00FB6803F00703FB61FB69C3F10703042BB9
:101E1C0028BF0423BB61FB690433062B02D9FB6981
:101E2C00033B00E000237B614FF0FF32BB6902FAF9
:101E3C0003F3DA43BB681A407B699A404FF0FF31D9
:101E4C007B6901FA03F3D9437B680B4013431846B3
:101E5C002437BD4680BC704780B582B000AF786037
:101E6C007B68013BB3F1807F01D301230FE00A4A69
:101E7C007B68013B53600F214FF0FF30FFF790FF61
:101E8C00054B00229A60044B07221A600023184667
:101E9C000837BD4680BD00BF10E000E080B582B0C1
:101EAC0000AF78607868FFF72DFF00BF0837BD469C
:101EBC0080BD80B586B000AF0346B9607A60FB7315
:101ECC0000237B61FFF742FF78617A68B968786913
:101EDC00FFF790FF024697F90F3011461846FFF7AF
:101EEC005FFF00BF1837BD4680BD80B582B000AF24
:101EFC000346FB7197F907301846FFF735FF00BF13
:101F0C000837BD4680BD80B582B000AF7860786878
:101F1C00FFF7A2FF034618460837BD4680BD80B4C4
:101F2C0085B000AF78600023FB737B6893F8213099
:101F3C00DBB2022B08D07B6804229A637B680022F8
:101F4C0083F82020012320E07B681B681A687B68DB
:101F5C001B6822F00E021A607B681B681A687B688B
:101F6C001B6822F001021A607B681A6C7B68DB6BC1
:101F7C00012101FA02F25A607B68012283F82120C8
:101F8C007B68002283F82020FB7B18461437BD4663
:101F9C0080BC704780B584B000AF78600023FB73C1
:101FAC007B6893F82130DBB2022B05D07B680422CE
:101FBC009A630123FB7351E07B681B681A687B688A
:101FCC001B6822F00E021A607B681B681A687B681B
:101FDC001B6822F001021A607B681B68224A93423C
:101FEC0029D07B681B68214A934222D07B681B68EE
:101FFC001F4A93421AD07B681B681E4A934212D028
:10200C007B681B681C4A93420AD07B681B681B4A7E
:10201C00934202D14FF480130EE04FF080730BE02B
:10202C004FF4803308E04FF4805305E04FF4807395
:10203C0002E0102300E00123114A53607B68012267
:10204C0083F821207B68002283F820207B685B6B5F
:10205C00002B03D07B685B6B78689847FB7B18463A
:10206C001037BD4680BD00BF080002401C00024076
:10207C003000024044000240580002406C00024014
:10208C000000024080B48BB000AF78603960002350
:10209C007B6200233B6269E101227B6A02FA03F353
:1020AC00FB613B681B68FA691340BB61BA69FB6949
:1020BC009A4240F058813B685B689A4A93425ED0E2
:1020CC00984A934275D8984A934258D0964A93426C
:1020DC006FD8964A934252D0944A934269D8944A04
:1020EC0093424CD0924A934263D8924A934246D040
:1020FC00904A93425DD8122B2AD8122B59D801A2A0
:10210C0052F823F08B210008652100087721000884
:10211C00B9210008BF210008BF210008BF21000819
:10212C00BF210008BF210008BF210008BF21000803
:10213C00BF210008BF210008BF210008BF210008F3
:10214C00BF210008BF2100086D2100088121000873
:10215C00794A934213D02CE03B68DB683B6229E060
:10216C003B68DB6804333B6224E03B68DB68083384
:10217C003B621FE03B68DB680C333B621AE03B6858
:10218C009B68002B02D104233B6213E03B689B68E5
:10219C00012B05D108233B627B68FA691A6109E0BF
:1021AC0008233B627B68FA695A6103E000233B62B7
:1021BC0000E000BFBB69FF2B01D87B6801E07B68A6
:1021CC0004337B61BB69FF2B02D87B6A9B0002E066
:1021DC007B6A083B9B003B617B691A680F213B695A
:1021EC0001FA03F3DB431A40396A3B6901FA03F342
:1021FC001A437B691A603B685B6803F08053002BC1
:10220C0000F0B1804D4B9B694C4A43F00103936144
:10221C004A4B9B6903F00103BB60BB68484A7B6A6D
:10222C009B08023352F82330FB607B6A03F00303F4
:10223C009B000F2202FA03F3DB43FA681340FB60A6
:10224C007B68404A934213D07B683F4A93420DD03F
:10225C007B683E4A934207D07B683D4A934201D14A
:10226C00032306E0042304E0022302E0012300E040
:10227C0000237A6A02F0030292009340FA68134337
:10228C00FB602F497B6A9B080233FA6841F82320D4
:10229C003B685B6803F48013002B06D02D4B9A68C7
:1022AC002C49BB6913438B6006E02A4B9A68BB69C7
:1022BC00DB43284913408B603B685B6803F40013D5
:1022CC00002B06D0234BDA682249BB691343CB6041
:1022DC0006E0204BDA68BB69DB431E491340CB6038
:1022EC003B685B6803F40033002B06D0194B5A682B
:1022FC001849BB6913434B6006E0164B5A68BB691F
:10230C00DB43144913404B603B685B6803F4803338
:10231C00002B21D00F4B1A680E49BB6913430B607D
:10232C0021E000BF0000321000003110000022102C
:10233C0000002110000012100000111000100240CB
:10234C000000014000080140000C01400010014059
:10235C0000140140000401400B4B1A68BB69DB43BD
:10236C00094913400B607B6A01337B623B681A6836
:10237C007B6A22FA03F3002B7FF48EAE00BF00BF02
:10238C002C37BD4680BC70470004014080B483B03C
:10239C0000AF78600B467B8013467B707B78002BFC
:1023AC0003D07A887B681A6103E07B881A047B6807
:1023BC001A6100BF0C37BD4680BC704780B485B035
:1023CC0000AF78600B467B807B68DB68FB607A88AB
:1023DC00FB6813401A04FB68D9437B880B401A43F3
:1023EC007B681A6100BF1437BD4680BC704780B54E
:1023FC0084B000AF78607B68002B01D1012334E0FE
:10240C007B681B684CF6CC421A607B681B6845F2F3
:10241C0055521A607B681B687A6852685A607B68F0
:10242C001B687A6892689A60FEF708FEF8600FE005
:10243C00FEF704FE0246FB68D31A272B08D97B68EB
:10244C001B68DB6803F00303002B01D003230CE0B3
:10245C007B681B68DB6803F00303002BE8D17B6807
:10246C001B684AF6AA221A60002318461037BD468C
:10247C0080BD80B483B000AF78607B681B684AF67F
:10248C00AA221A60002318460C37BD4680BC704740
:10249C0080B586B000AF78607B68002B01D101233A
:1024AC0072E27B681B6803F00103002B00F087804D
:1024BC00924B5B6803F00C03042B0CD08F4B5B68C6
:1024CC0003F00C03082B12D18C4B5B6803F48033A4
:1024DC00B3F5803F0BD1894B1B6803F40033002B01
:1024EC006CD07B685B68002B68D101234CE27B6865
:1024FC005B68B3F5803F06D1804B1B687F4A43F481
:10250C00803313602EE07B685B68002B0CD17B4B17
:10251C001B687A4A23F480331360784B1B68774A24
:10252C0023F4802313601DE07B685B68B3F5A02F58
:10253C000CD1724B1B68714A43F4802313606F4BB0
:10254C001B686E4A43F4803313600BE06B4B1B68C3
:10255C006A4A23F480331360684B1B68674A23F480
:10256C00802313607B685B68002B13D0FEF766FD3D
:10257C00386108E0FEF762FD02463B69D31A642B12
:10258C0001D9032300E25D4B1B6803F40033002BDD
:10259C00F0D014E0FEF752FD386108E0FEF74EFD76
:1025AC0002463B69D31A642B01D90323ECE1534B4C
:1025BC001B6803F40033002BF0D100E000BF7B68F4
:1025CC001B6803F00203002B63D04C4B5B6803F0D9
:1025DC000C03002B0BD0494B5B6803F00C03082B4E
:1025EC001CD1464B5B6803F48033002B16D1434B54
:1025FC001B6803F00203002B05D07B681B69012BC1
:10260C0001D00123C0E13D4B1B6823F0F8027B682D
:10261C005B69DB00394913430B603AE07B681B694B
:10262C00002B20D0364B01221A60FEF707FD3861D3
:10263C0008E0FEF703FD02463B69D31A022B01D9D1
:10264C000323A1E12D4B1B6803F00203002BF0D0F8
:10265C002A4B1B6823F0F8027B685B69DB00274977
:10266C0013430B6015E0264B00221A60FEF7E6FCC4
:10267C00386108E0FEF7E2FC02463B69D31A022BF4
:10268C0001D9032380E11D4B1B6803F00203002BCF
:10269C00F0D17B681B6803F00803002B3AD07B68F1
:1026AC009B69002B19D0174B01221A60FEF7C6FC50
:1026BC00386108E0FEF7C2FC02463B69D31A022BD4
:1026CC0001D9032360E10D4B5B6A03F00203002B7D
:1026DC00F0D0012000F0CEFA1CE00A4B00221A6068
:1026EC00FEF7ACFC38610FE0FEF7A8FC02463B6934
:1026FC00D31A022B08D9032346E100BF0010024075
:10270C000000424280044242924B5B6A03F0020397
:10271C00002BE9D17B681B6803F00403002B00F04D
:10272C00A6800023FB758B4BDB6903F08053002BD9
:10273C000DD1884BDB69874A43F08053D361854BBD
:10274C00DB6903F08053BB60BB680123FB75824BD4
:10275C001B6803F48073002B18D17F4B1B687E4AD7
:10276C0043F480731360FEF769FC386108E0FEF7F0
:10277C0065FC02463B69D31A642B01D9032303E1A0
:10278C00754B1B6803F48073002BF0D07B68DB68FF
:10279C00012B06D16F4B1B6A6E4A43F00103136287
:1027AC002DE07B68DB68002B0CD16A4B1B6A694AF5
:1027BC0023F001031362674B1B6A664A23F0040380
:1027CC0013621CE07B68DB68052B0CD1614B1B6A28
:1027DC00604A43F0040313625E4B1B6A5D4A43F08C
:1027EC00010313620BE05B4B1B6A5A4A23F0010393
:1027FC001362584B1B6A574A23F0040313627B681D
:10280C00DB68002B15D0FEF719FC38610AE0FEF7E7
:10281C0015FC02463B69D31A41F28832934201D926
:10282C000323B1E04B4B1B6A03F00203002BEED0E9
:10283C0014E0FEF703FC38610AE0FEF7FFFB0246EA
:10284C003B69D31A41F28832934201D903239BE0AE
:10285C00404B1B6A03F00203002BEED1FB7D012BD6
:10286C0005D13C4BDB693B4A23F08053D3617B6839
:10287C00DB69002B00F08780364B5B6803F00C03A0
:10288C00082B61D07B68DB69022B46D1334B0022CD
:10289C001A60FEF7D3FB386108E0FEF7CFFB024667
:1028AC003B69D31A022B01D903236DE0294B1B681A
:1028BC0003F00073002BF0D17B681B6AB3F5803FEB
:1028CC0008D1244B5B6823F400327B689B68214958
:1028DC0013434B601F4B5B6823F474127B68196ABB
:1028EC007B685B6A0B431B4913434B601B4B0122F8
:1028FC001A60FEF7A3FB386108E0FEF79FFB024667
:10290C003B69D31A022B01D903233DE0114B1B6801
:10291C0003F00073002BF0D035E0104B00221A604E
:10292C00FEF78CFB386108E0FEF788FB02463B693A
:10293C00D31A022B01D9032326E0064B1B6803F0A4
:10294C000073002BF0D11EE07B68DB69012B07D1F3
:10295C00012319E000100240007000406000424268
:10296C000B4B5B68FB60FB6803F480327B681B6A73
:10297C009A4206D1FB6803F470127B685B6A9A4238
:10298C0001D0012300E0002318461837BD4680BD56
:10299C000010024080B584B000AF786039607B686D
:1029AC00002B01D10123D0E06A4B1B6803F0070315
:1029BC003A689A4210D9674B1B6823F007026549A5
:1029CC003B6813430B60634B1B6803F007033A68C7
:1029DC009A4201D00123B8E07B681B6803F0020324
:1029EC00002B20D07B681B6803F00403002B05D060
:1029FC00594B5B68584A43F4E06353607B681B682F
:102A0C0003F00803002B05D0534B5B68524A43F488
:102A1C0060535360504B5B6823F0F0027B689B68FB
:102A2C004D4913434B607B681B6803F00103002B7B
:102A3C0040D07B685B68012B07D1474B1B6803F4C4
:102A4C000033002B15D101237FE07B685B68022BE0
:102A5C0007D1414B1B6803F00073002B09D10123F4
:102A6C0073E03D4B1B6803F00203002B01D10123E3
:102A7C006BE0394B5B6823F003027B685B6836497B
:102A8C0013434B60FEF7DAFAF8600AE0FEF7D6FA69
:102A9C000246FB68D31A41F28832934201D90323D0
:102AAC0053E02D4B5B6803F00C027B685B689B006A
:102ABC009A42EBD1274B1B6803F007033A689A4202
:102ACC0010D2244B1B6823F0070222493B681343A6
:102ADC000B60204B1B6803F007033A689A4201D045
:102AEC00012332E07B681B6803F00403002B08D041
:102AFC00194B5B6823F4E0627B68DB68164913436F
:102B0C004B607B681B6803F00803002B09D0124B49
:102B1C005B6823F460527B681B69DB000E4913432E
:102B2C004B6000F021F802460B4B5B681B0903F06D
:102B3C000F030A49CB5C22FA03F3094A1360094BD1
:102B4C001B681846FEF738FA002318461037BD46A6
:102B5C0080BD00BF00200240001002402456000837
:102B6C00000000200400002080B487B000AF0023D8
:102B7C00FB600023BB6000237B6100237B60002390
:102B8C003B611E4B5B68FB60FB6803F00C03042B82
:102B9C0002D0082B03D027E0194B3B6127E0FB68E0
:102BAC009B0C03F00F03174AD35C7B60FB6803F4A8
:102BBC008033002B10D0114B5B685B0C03F00103CE
:102BCC00114AD35CBB607B680D4A03FB02F2BB6805
:102BDC00B2FBF3F37B6104E07B680C4A02FB03F36A
:102BEC007B617B693B6102E0054B3B6100BF3B694C
:102BFC0018461C37BD4680BC704700BF0010024011
:102C0C0000127A003C5600084C56000800093D00A2
:102C1C0080B400AF024B1B681846BD4680BC7047A1
:102C2C000000002080B500AFFFF7F2FF0246054B15
:102C3C005B681B0A03F007030349CB5C22FA03F31E
:102C4C00184680BD001002403456000880B500AF15
:102C5C00FFF7DEFF0246054B5B68DB0A03F0070358
:102C6C000349CB5C22FA03F3184680BD00100240E6
:102C7C003456000880B485B000AF78600A4B1B68EE
:102C8C000A4AA2FB03235B0A7A6802FB03F3FB608C
:102C9C0000BFFB685A1EFA60002BF9D100BF00BFC1
:102CAC001437BD4680BC704700000020D34D621025
:102CBC0080B582B000AF78607B68002B01D1012316
:102CCC0041E07B6893F83D30DBB2002B06D17B688A
:102CDC00002283F83C207868FEF758F87B680222C3
:102CEC0083F83D207B681A687B68043319461046CC
:102CFC0000F0A2FA7B68012283F846207B6801224F
:102D0C0083F83E207B68012283F83F207B680122F8
:102D1C0083F840207B68012283F841207B680122E4
:102D2C0083F842207B68012283F843207B680122D0
:102D3C0083F844207B68012283F845207B680122BC
:102D4C0083F83D20002318460837BD4680BD00009F
:102D5C0080B485B000AF78607B6893F83D30DBB20F
:102D6C00012B01D001233AE07B68022283F83D203D
:102D7C007B681B68DA687B681B6842F00102DA60CA
:102D8C007B681B68184A93420ED07B681B68B3F1B2
:102D9C00804F09D07B681B68144A934204D07B682F
:102DAC001B68134A934211D17B681B689B6803F024
:102DBC000703FB60FB68062B10D07B681B681A6846
:102DCC007B681B6842F001021A6007E07B681B6895
:102DDC001A687B681B6842F001021A6000231846CF
:102DEC001437BD4680BC7047002C014000040040E5
:102DFC000008004080B483B000AF78607B681B682B
:102E0C00DA687B681B6822F00102DA607B681B6859
:102E1C001A6A41F211131340002B0FD17B681B6807
:102E2C001A6A40F244431340002B07D17B681B689D
:102E3C001A687B681B6822F001021A607B68012209
:102E4C0083F83D20002318460C37BD4680BC7047E4
:102E5C0080B582B000AF78607B681B681B6903F09B
:102E6C000203022B22D17B681B68DB6803F0020390
:102E7C00022B1BD17B681B686FF002021A617B6806
:102E8C0001221A777B681B689B6903F00303002BF4
:102E9C0003D0786800F0B4F905E0786800F0A7F981
:102EAC00786800F0B6F97B6800221A777B681B689B
:102EBC001B6903F00403042B22D17B681B68DB68BD
:102ECC0003F00403042B1BD17B681B686FF0040216
:102EDC001A617B6802221A777B681B689B6903F472
:102EEC004073002B03D0786800F08AF905E078680D
:102EFC0000F07DF9786800F08CF97B6800221A7775
:102F0C007B681B681B6903F00803082B22D17B68C4
:102F1C001B68DB6803F00803082B1BD17B681B685C
:102F2C006FF008021A617B6804221A777B681B68B1
:102F3C00DB6903F00303002B03D0786800F060F921
:102F4C0005E0786800F053F9786800F062F97B6866
:102F5C0000221A777B681B681B6903F01003102B87
:102F6C0022D17B681B68DB6803F01003102B1BD18C
:102F7C007B681B686FF010021A617B6808221A7755
:102F8C007B681B68DB6903F44073002B03D0786803
:102F9C0000F036F905E0786800F029F9786800F05F
:102FAC0038F97B6800221A777B681B681B6903F071
:102FBC000103012B0ED17B681B68DB6803F0010356
:102FCC00012B07D17B681B686FF001021A617868CE
:102FDC00FDF722FA7B681B681B6903F08003802BCA
:102FEC000ED17B681B68DB6803F08003802B07D154
:102FFC007B681B686FF080021A61786800F07BFABE
:10300C007B681B681B6903F04003402B0ED17B6867
:10301C001B68DB6803F04003402B07D17B681B68FF
:10302C006FF040021A61786800F0FCF87B681B684E
:10303C001B6903F02003202B0ED17B681B68DB6817
:10304C0003F02003202B07D17B681B686FF0200254
:10305C001A61786800F046FA00BF0837BD4680BD9B
:10306C0080B584B000AF786039600023FB737B6857
:10307C0093F83C30012B01D10223B4E07B68012290
:10308C0083F83C207B68022283F83D207B681B6818
:10309C009B68BB60BB6823F07703BB60BB6823F401
:1030AC007F43BB607B681B68BA689A603B681B688F
:1030BC00B3F5005F3ED0B3F5005F00F28780B3F547
:1030CC00805F00F08680B3F5805F7FD8702B1AD0BC
:1030DC00702B7BD8602B50D0602B77D8502B3CD0EA
:1030EC00502B73D8402B58D0402B6FD8302B64D03A
:1030FC00302B6BD8202B60D0202B67D8002B5CD0CA
:10310C00102B5AD062E07B6818683B6899683B6862
:10311C005A683B68DB6800F068F97B681B689B6841
:10312C00BB60BB6843F07703BB607B681B68BA6805
:10313C009A604FE07B6818683B6899683B685A68EE
:10314C003B68DB6800F051F97B681B689A687B6808
:10315C001B6842F480429A603CE07B6818683B68CC
:10316C0059683B68DB681A4600F0C8F87B681B6836
:10317C005021184600F01FF92CE07B6818683B685A
:10318C0059683B68DB681A4600F0E6F87B681B68F8
:10319C006021184600F00FF91CE07B6818683B684A
:1031AC0059683B68DB681A4600F0A8F87B681B6816
:1031BC004021184600F0FFF80CE07B681A683B6869
:1031CC001B681946104600F0F6F803E00123FB7368
:1031DC0000E000BF7B68012283F83D207B68002261
:1031EC0083F83C20FB7B18461037BD4680BD80B46D
:1031FC0083B000AF786000BF0C37BD4680BC704711
:10320C0080B483B000AF786000BF0C37BD4680BC83
:10321C00704780B483B000AF786000BF0C37BD46F8
:10322C0080BC704780B483B000AF786000BF0C37AF
:10323C00BD4680BC7047000080B485B000AF78609C
:10324C0039607B681B68FB607B68294A93420BD012
:10325C007B68B3F1804F07D07B68264A934203D03A
:10326C007B68254A934208D1FB6823F07003FB600E
:10327C003B685B68FA681343FB607B681C4A9342AB
:10328C000BD07B68B3F1804F07D07B68194A93420F
:10329C0003D07B68184A934208D1FB6823F440732F
:1032AC00FB603B68DB68FA681343FB60FB6823F048
:1032BC0080023B685B691343FB607B68FA681A60A9
:1032CC003B689A687B68DA623B681A687B689A622A
:1032DC007B68074A934203D13B681A697B681A637F
:1032EC007B6801225A6100BF1437BD4680BC704711
:1032FC00002C0140000400400008004080B487B05E
:10330C0000AFF860B9607A60FB681B6A7B61FB6890
:10331C001B6A23F00102FB681A62FB689B693B6124
:10332C003B6923F0F0033B617B681B013A69134353
:10333C003B617B6923F00A037B617A69BB681343A9
:10334C007B61FB683A699A61FB687A691A6200BF13
:10335C001C37BD4680BC704780B487B000AFF860A6
:10336C00B9607A60FB681B6A7B61FB681B6A23F09F
:10337C001002FB681A62FB689B693B613B6923F492
:10338C0070433B617B681B033A6913433B617B6968
:10339C0023F0A0037B61BB681B017A6913437B613B
:1033AC00FB683A699A61FB687A691A6200BF1C373C
:1033BC00BD4680BC704780B485B000AF7860396082
:1033CC007B689B68FB60FB6823F07003FB603A68CA
:1033DC00FB68134343F00703FB607B68FA689A6051
:1033EC0000BF1437BD4680BC704780B487B000AFB7
:1033FC00F860B9607A603B60FB689B687B617B69B5
:10340C0023F47F437B613B681A027B681A43BB68D9
:10341C0013437A6913437B61FB687A699A6000BF36
:10342C001C37BD4680BC704780B485B000AF786057
:10343C0039607B6893F83C30012B01D1022346E0C4
:10344C007B68012283F83C207B68022283F83D20B4
:10345C007B681B685B68FB607B681B689B68BB6058
:10346C00FB6823F07003FB603B681B68FA6813432E
:10347C00FB607B681B68FA685A607B681B68164A9D
:10348C0093420ED07B681B68B3F1804F09D07B68E8
:10349C001B68124A934204D07B681B68104A934203
:1034AC000CD1BB6823F08003BB603B685B68BA68D7
:1034BC001343BB607B681B68BA689A607B68012207
:1034CC0083F83D207B68002283F83C2000231846BB
:1034DC001437BD4680BC7047002C014000040040EE
:1034EC000008004080B483B000AF786000BF0C3798
:1034FC00BD4680BC704780B483B000AF786000BF1D
:10350C000C37BD4680BC704780B582B000AF786088
:10351C007B68002B01D1012342E07B6893F841309A
:10352C00DBB2002B06D17B68002283F84020786840
:10353C00FDF7B2FC7B68242283F841207B681B6872
:10354C00DA687B681B6822F40052DA60786800F055
:10355C00C5FD7B681B681A697B681B6822F4904266
:10356C001A617B681B685A697B681B6822F02A0207
:10357C005A617B681B68DA687B681B6842F40052EE
:10358C00DA607B6800225A647B68202283F8412031
:10359C007B68202283F842207B6800225A63002338
:1035AC0018460837BD4680BD80B58AB002AFF860BA
:1035BC00B9603B601346FB8000237B61FB6893F88A
:1035CC004130DBB2202B6DD1BB68002B02D0FB88C5
:1035DC00002B01D1012366E0FB6800225A64FB68D2
:1035EC00212283F84120FDF729FD7861FB68FA88D8
:1035FC009A84FB68FA88DA84FB689B68B3F5805F71
:10360C0008D1FB681B69002B04D10023FB61BB684C
:10361C00BB6103E0BB68FB610023BB612AE03B6834
:10362C0000937B6900228021F86800F014FB0346AC
:10363C00002B01D0032336E0FB69002B0BD1BB69B7
:10364C001B881A46FB681B68C2F308025A60BB69E8
:10365C000233BB6107E0FB691A78FB681B685A6090
:10366C00FB690133FB61FB68DB8C9BB2013B9AB2BB
:10367C00FB68DA84FB68DB8C9BB2002BCFD13B68F8
:10368C0000937B6900224021F86800F0E4FA0346BD
:10369C00002B01D0032306E0FB68202283F8412095
:1036AC00002300E0022318462037BD4680BD80B5BC
:1036BC0084B000AFF860B9601346FB80FB6893F8E8
:1036CC004230DBB2202B12D1BB68002B02D0FB881E
:1036DC00002B01D101230BE0FB6800221A63FB884D
:1036EC001A46B968F86800F024FB034600E0022390
:1036FC0018461037BD4680BD80B5BAB000AF7860B3
:10370C007B681B681B68C7F8E4307B681B68DB6848
:10371C00C7F8E0307B681B685B69C7F8DC300023B6
:10372C00C7F8D8300023C7F8D430D7F8E43003F00A
:10373C000F03C7F8D830D7F8D830002B0FD1D7F8F3
:10374C00E43003F02003002B09D0D7F8E03003F06D
:10375C002003002B03D0786800F001FC5BE2D7F863
:10376C00D830002B00F0DE80D7F8DC3003F00103FA
:10377C00002B06D1D7F8E03003F49073002B00F047
:10378C00D180D7F8E43003F00103002B0BD0D7F82D
:10379C00E03003F48073002B05D07B685B6C43F046
:1037AC0001027B685A64D7F8E43003F00403002B61
:1037BC000BD0D7F8DC3003F00103002B05D07B686D
:1037CC005B6C43F002027B685A64D7F8E43003F078
:1037DC000203002B0BD0D7F8DC3003F00103002BD5
:1037EC0005D07B685B6C43F004027B685A64D7F8A5
:1037FC00E43003F00803002B11D0D7F8E03003F0CD
:10380C002003002B05D1D7F8DC3003F00103002B8B
:10381C0005D07B685B6C43F008027B685A647B685C
:10382C005B6C002B00F0F281D7F8E43003F020033E
:10383C00002B08D0D7F8E03003F02003002B02D087
:10384C00786800F08CFB7B681B685B6903F04003B5
:10385C00002B14BF01230023DBB2C7F8D4307B68E4
:10386C005B6C03F00803002B03D1D7F8D430002B8A
:10387C004FD0786800F096FA7B681B685B6903F0A0
:10388C004003002B41D07B681B681433C7F89C3075
:10389C00D7F89C3053E8003FC7F89830D7F89830E9
:1038AC0023F04003C7F8D0307B681B681433D7F87B
:1038BC00D020C7F8A820C7F8A430D7F8A410D7F8A0
:1038CC00A82041E80023C7F8A030D7F8A030002B7F
:1038DC00D9D17B68DB6B002B13D07B68DB6B7E4A0A
:1038EC005A637B68DB6B1846FEF754FB0346002BD0
:1038FC0016D07B68DB6B5B6B7A68D26B1046984793
:10390C000EE0786800F093F90AE0786800F08FF91F
:10391C0006E0786800F08BF97B6800225A6475E148
:10392C0000BF73E17B681B6B012B40F04F81D7F814
:10393C00E43003F01003002B00F04881D7F8E0309E
:10394C0003F01003002B00F041810023BB607B6867
:10395C001B681B68BB607B681B685B68BB60BB68D3
:10396C007B681B685B6903F04003002B00F0B6809A
:10397C007B68DB6B1B685B68A7F8BE30B7F8BE30A2
:10398C00002B00F045817B689B8DB7F8BE209A42D6
:10399C0080F03E817B68B7F8BE20DA857B68DB6BF4
:1039AC009B69202B00F088807B681B680C33C7F860
:1039BC008830D7F8883053E8003FC7F88430D7F800
:1039CC00843023F48073C7F8B8307B681B680C33E1
:1039DC00D7F8B820C7F89420C7F89030D7F89010D3
:1039EC00D7F8942041E80023C7F88C30D7F88C30F6
:1039FC00002BD9D17B681B6814337B677B6F53E832
:103A0C00003F3B673B6F23F00103C7F8B4307B6882
:103A1C001B681433D7F8B420C7F88020FB67F96F04
:103A2C00D7F8802041E80023BB67BB6F002BE1D1A6
:103A3C007B681B6814333B663B6E53E8003FFB65A9
:103A4C00FB6D23F04003C7F8B0307B681B68143360
:103A5C00D7F8B020FA66BB66B96EFA6E41E800235F
:103A6C007B667B6E002BE3D17B68202283F842209F
:103A7C007B6800221A637B681B680C33FB64FB6C4D
:103A8C0053E8003FBB64BB6C23F01003C7F8AC30A9
:103A9C007B681B680C33D7F8AC20BA657B65796DF5
:103AAC00BA6D41E800233B653B6D002BE3D17B688D
:103ABC00DB6B1846FEF733FA7B6802225A637B688D
:103ACC009A8D7B68DB8D9BB2D31A9BB219467868B2
:103ADC0000F0B6F89CE000BF753E00087B689A8D3C
:103AEC007B68DB8D9BB2D31AA7F8CE307B68DB8D5D
:103AFC009BB2002B00F08E80B7F8CE30002B00F07C
:103B0C0089807B681B680C33BB63BB6B53E8003F3D
:103B1C007B637B6B23F49073C7F8C8307B681B689E
:103B2C000C33D7F8C8207A643B64396C7A6C41E862
:103B3C000023FB63FB6B002BE3D17B681B68143306
:103B4C007B627B6A53E8003F3B623B6A23F00103D4
:103B5C00C7F8C4307B681B681433D7F8C4203A63A9
:103B6C00FB62F96A3A6B41E80023BB62BB6A002B2B
:103B7C00E3D17B68202283F842207B6800221A6301
:103B8C007B681B680C333B613B6953E8003FFB606F
:103B9C00FB6823F01003C7F8C0307B681B680C333C
:103BAC00D7F8C020FA61BB61B969FA6941E8002312
:103BBC007B617B69002BE3D17B6802225A63B7F8E7
:103BCC00CE301946786800F03BF823E0D7F8E430A3
:103BDC0003F08003002B09D0D7F8E03003F080030A
:103BEC00002B03D0786800F053F914E0D7F8E430D8
:103BFC0003F04003002B0ED0D7F8E03003F0400365
:103C0C00002B08D0786800F092F904E000BF02E0C5
:103C1C0000BF00E000BFE837BD4680BD80B483B074
:103C2C0000AF786000BF0C37BD4680BC704780B4D5
:103C3C0083B000AF786000BF0C37BD4680BC7047C6
:103C4C0080B483B000AF78600B467B8000BF0C372C
:103C5C00BD4680BC704780B590B000AFF860B960CD
:103C6C003B601346FB7150E0BB6CB3F1FF3F4CD093
:103C7C00BB6C002B07D0FDF7E1F902463B68D31A69
:103C8C00BA6C9A4241D2FB681B680C33BB62BB6AAC
:103C9C0053E8003F7B627B6A23F4D073FB63FB68C1
:103CAC001B680C33FA6B7A633B63396B7A6B41E8B4
:103CBC000023FB62FB6A002BE5D1FB681B68143305
:103CCC007B617B6953E8003F3B613B6923F0010357
:103CDC00BB63FB681B681433BA6B3A62FB61F9690E
:103CEC003A6A41E80023BB61BB69002BE5D1FB6854
:103CFC00202283F84120FB68202283F84220FB68B5
:103D0C00002283F8402003230FE0FB681B681A682D
:103D1C00BB681340BA689A420CBF01230023DBB284
:103D2C001A46FB799A429FD0002318464037BD466D
:103D3C0080BD80B485B000AFF860B9601346FB80DD
:103D4C00FB68BA689A62FB68FA889A85FB68FA88FD
:103D5C00DA85FB6800225A64FB68222283F8422031
:103D6C00FB681B69002B07D0FB681B68DA68FB68D3
:103D7C001B6842F48072DA60FB681B685A69FB6846
:103D8C001B6842F001025A61FB681B68DA68FB6829
:103D9C001B6842F02002DA60002318461437BD4637
:103DAC0080BC704780B495B000AF78607B681B68AE
:103DBC000C337B637B6B53E8003F3B633B6B23F41F
:103DCC009073FB647B681B680C33FA6C3A64FB637E
:103DDC00F96B3A6C41E80023BB63BB6B002BE5D15C
:103DEC007B681B6814333B623B6A53E8003FFB6102
:103DFC00FB6923F00103BB647B681B681433BA6C4A
:103E0C00FA62BB62B96AFA6A41E800237B627B6A98
:103E1C00002BE5D17B681B6B012B19D17B681B68D0
:103E2C000C33FB60FB6853E8003FBB60BB6823F0BE
:103E3C0010037B647B681B680C337A6CBA617B6102
:103E4C007969BA6941E800233B613B69002BE5D1F4
:103E5C007B68202283F842207B6800221A6300BF13
:103E6C005437BD4680BC704780B584B000AF7860D5
:103E7C007B685B6AFB60FB680022DA85FB680022CA
:103E8C00DA84F868FFF7D3FE00BF1037BD4680BD5B
:103E9C0080B485B000AF78607B6893F84130DBB2BA
:103EAC00212B3ED17B689B68B3F5805F14D17B6876
:103EBC001B69002B10D17B681B6AFB60FB681B889D
:103ECC001A467B681B68C2F308025A607B681B6A3F
:103EDC009A1C7B681A6208E07B681B6A591C7A681A
:103EEC0011621A787B681B685A607B68DB8C9BB20A
:103EFC00013B9BB27A681946D184002B0FD17B68A9
:103F0C001B68DA687B681B6822F08002DA607B68C9
:103F1C001B68DA687B681B6842F04002DA60002399
:103F2C0000E0022318461437BD4680BC704780B5AC
:103F3C0082B000AF78607B681B68DA687B681B68AE
:103F4C0022F04002DA607B68202283F841207868F6
:103F5C00FFF764FE002318460837BD4680BD80B5C8
:103F6C008CB000AF78607B6893F84230DBB2222BC8
:103F7C0040F0AE807B689B68B3F5805F17D17B689F
:103F8C001B69002B13D10023FB627B689B6ABB620D
:103F9C007B681B685B689BB2C3F308039AB2BB6A6D
:103FAC001A807B689B6A9A1C7B689A6226E07B6805
:103FBC009B6AFB620023BB627B689B68B3F5805FE6
:103FCC0007D07B689B68002B0AD17B681B69002B90
:103FDC0006D17B681B685B68DAB2FB6A1A7008E072
:103FEC007B681B685B68DBB203F07F03DAB2FB6AA9
:103FFC001A707B689B6A5A1C7B689A627B68DB8DA3
:10400C009BB2013B9BB27A681946D185002B5DD1DE
:10401C007B681B68DA687B681B6822F02002DA6018
:10402C007B681B68DA687B681B6822F48072DA6034
:10403C007B681B685A697B681B6822F001025A6115
:10404C007B68202283F842207B6800225A637B68BD
:10405C001B6B012B35D17B6800221A637B681B68B4
:10406C000C337B617B6953E8003F3B613B6923F078
:10407C0010037B627B681B680C337A6A3A62FB61C3
:10408C00F9693A6A41E80023BB61BB69002BE5D1B1
:10409C007B681B681B6803F01003102B0AD10023EC
:1040AC00FB607B681B681B68FB607B681B685B683C
:1040BC00FB60FB687B689B8D19467868FFF7C0FD39
:1040CC0002E0786800F074FA002302E0002300E0BC
:1040DC00022318463037BD4680BD000080B584B041
:1040EC0000AF78607B681B681B6923F440517B68C8
:1040FC00DA687B681B680A431A617B689A687B687C
:10410C001B691A437B685B691343BB607B681B6844
:10411C00DB6823F4B05323F00C037A681268B96897
:10412C000B43D3607B681B685B6923F440717B682D
:10413C009A697B681B680A435A617B681B682C4A26
:10414C00934203D1FEF782FDF86002E0FEF76AFDB0
:10415C00F860FA6813469B0013449A001A447B6873
:10416C005B689B00B2FBF3F3224AA2FB03235B09BF
:10417C001901FA6813469B0013449A001A447B6891
:10418C005B689B00B2FBF3F21A4BA3FB02035B09C7
:10419C00642000FB03F3D31A1B013233154AA2FB34
:1041AC0003235B0903F0F0031944FA6813469B00E0
:1041BC0013449A001A447B685B689B00B2FBF3F2D1
:1041CC000C4BA3FB02035B09642000FB03F3D31A23
:1041DC001B013233074AA2FB03235B0903F00F02D6
:1041EC007B681B680A449A6000BF1037BD4680BDCF
:1041FC00003801401F85EB5180B584B000AFF860EA
:10420C00B9607A60FB707868FBF79AFF034601335C
:10421C00184600F095FC03461A46BB68DA60BB688A
:10422C00DB687968184600F0A5FDBB683A7E5A70C9
:10423C00BB68FA781A70FB6893F898301A46FB68DA
:10424C001A32B96843F82210FB6893F8983001339E
:10425C00DAB2FB6883F89820BB68FA695A60BB68CD
:10426C003A6A9A60002318461037BD4680BD80B567
:10427C0082B000AF786039607B683A681A607B68FE
:10428C00002283F865207B68002283F866207B6817
:10429C0018687B68643301221946FFF708FA7B68BB
:1042AC00002283F89820002318460837BD4680BDAD
:1042BC0080B584B000AF786039607B681A683B6861
:1042CC001B681B689A4240F0D9803B6893F86530B4
:1042DC0019463B6893F864203B680B441A713B68A1
:1042EC0093F865300133DAB23B6883F865203B689C
:1042FC0093F86430FF2B08D13B6893F86630013398
:10430C00DAB23B6883F8662003E03B68002283F84E
:10431C0066203B6893F86630032B40F0A78000239F
:10432C00FB730023BB7300237B730EE0FB7B013319
:10433C00FB737B7B3A6813441B79FF2B02D1BB7B4D
:10434C000133BB737B7B01337B73BB7B022BEDD9BE
:10435C003B681B79652B45D100233B733CE03B68E4
:10436C009A79397B3B681A3153F821305B789A4241
:10437C002FD13B685A79397B3B681A3153F821307D
:10438C001B789A4225D13B68DB79012B0ED13A7B05
:10439C003B681A3253F822305B68002B06D03A7B0C
:1043AC003B681A3253F822305B6898473B68DB79DC
:1043BC00002B0ED13A7B3B681A3253F822309B68A3
:1043CC00002B06D03A7B3B681A3253F822309B689C
:1043DC0098473B7B01333B733B6893F898303A7BAF
:1043EC009A42BCD33B681B79702B21D13B680022CD
:1043FC0083F8D9200023BB6015E0BB6801333A6811
:10440C00134419793A68BB68134499330A461A70F5
:10441C003B6893F8D9300133DAB23B6883F8D92082
:10442C00BB680133BB60FB7B043BBA689A42E4DB9C
:10443C003B681B79712B11D13B681B7A1A063B68C0
:10444C00DB791B041A433B689B791B0213433A68C4
:10445C00527913431A463B68C3F8DC203B680022B0
:10446C0083F866203B68002283F865203B68186857
:10447C003B68643301221946FFF719F900231846EB
:10448C001037BD4680BD000080B594B000AFF86019
:10449C00B9607A6000233B6107F114033C220021D0
:1044AC00184600F023FCBB68DA6807F110007B6843
:1044BC00064900F0FBFB07F110031946F86800F001
:1044CC002BF8002318465037BD4680BD24550008F4
:1044DC0080B594B000AFF860B9607A6000233B619E
:1044EC0007F114033C220021184600F0FFFBBB68C7
:1044FC00DA6807F110007B68064900F0D7FB07F17A
:10450C0010031946F86800F007F8002318465037D6
:10451C00BD4680BD3C55000890B583B000AF7860B7
:10452C0039607B681C683868FBF70AFE03469AB250
:10453C00FA2339682046FFF737F8786800F006F858
:10454C00002318460C37BD4690BD000080B584B0E2
:10455C0000AF78600C4A07F10C0312681146198001
:10456C000233120C1A707B68186807F10C01FA23DD
:10457C000322FFF719F8786800F008F800231846B2
:10458C001037BD4680BD00BF4855000880B582B0CD
:10459C0000AF78607B6818687B6864330122194629
:1045AC00FFF785F8002318460837BD4680BD00008C
:1045BC0080B582B000AF786003497868FFF778FE69
:1045CC0000BF0837BD4680BD9802002080B584B07E
:1045DC0004AF4B494B48FFF74AFE002302930023DC
:1045EC0001930F2300930123474A48494548FFF79D
:1045FC0003FE002302930023019311230093012354
:10460C00434A44493F48FFF7F7FD00230293002338
:10461C0001931223009301233F4A40493948FFF785
:10462C00EBFD002302930023019304230093012349
:10463C003B4A3C493348FFF7DFFD0023029300233C
:10464C000193132300930123374A38492D48FFF770
:10465C00D3FD00230293002301930423009303232F
:10466C00334A34492748FFF7C7FD00230293002340
:10467C0001930923009305232F4A30492148FFF762
:10468C00BBFD00230293002301930A23009305230F
:10469C002B4A2C491B48FFF7AFFD00230293002344
:1046AC000193072300930623274A28491548FFF74F
:1046BC00A3FD0023029300230193082300930623F8
:1046CC00234A24490F48FFF797FD00230293002348
:1046DC0001930923009306231F4A20490948FFF739
:1046EC008BFD00230293002301930A2300930623DE
:1046FC001B4A1C490348FFF77FFD00BFBD4680BD28
:10470C004C020020980200204C5500087803002031
:10471C005C550008880300206C55000898030020A5
:10472C007C550008A80300208C550008B803002015
:10473C00A055000828040020B4550008C803002028
:10474C00C4550008D8030020D8550008E803002001
:10475C00E8550008F8030020FC5500080804002068
:10476C000C5600081804002080B582B000AF7860A9
:10477C007A6804490448FFF7ABFE00BF0837BD4612
:10478C0080BD00BF780300209802002080B582B065
:10479C0000AF78607A6804490448FFF799FE00BFBF
:1047AC000837BD4680BD00BF88030020980200205A
:1047BC0080B582B000AF78607A6804490448FFF78E
:1047CC0087FE00BF0837BD4680BD00BF98030020A0
:1047DC009802002080B582B000AF78607A680449F6
:1047EC000448FFF775FE00BF0837BD4680BD00BF0B
:1047FC00A80300209802002080B582B000AF78603A
:10480C007A6804490448FFF73FFE00BF0837BD46ED
:10481C0080BD00BF280400209802002080B582B023
:10482C0000AF78607A6804490448FFF72DFE00BF9A
:10483C000837BD4680BD00BFB80300209802002099
:10484C0080B582B000AF78607A6804490448FFF7FD
:10485C003FFE00BF0837BD4680BD00BFC803002027
:10486C009802002080B582B000AF78607A68044965
:10487C000448FFF72DFE00BF0837BD4680BD00BFC2
:10488C00D80300209802002080B582B000AF786079
:10489C007A6804490448FFF71BFE00BF0837BD4681
:1048AC0080BD00BFE80300209802002080B582B0D4
:1048BC0000AF78607A6804490448FFF709FE00BF2E
:1048CC000837BD4680BD00BFF803002098020020C9
:1048DC0080B582B000AF78607A6804490448FFF76D
:1048EC00F7FD00BF0837BD4680BD00BF080400209F
:1048FC009802002080B582B000AF78607A680449D5
:10490C000448FFF7E5FD00BF0837BD4680BD00BF7A
:10491C00180400209802002080B500AF0020FFF79B
:10492C0023FF0020FFF732FF0020FFF741FF00209C
:10493C00FFF750FF0B48FFF771FF0020FFF780FFD8
:10494C000020FFF78FFF0020FFF79EFF0020FFF7EE
:10495C00ADFF0020FFF7BCFF0020FFF7CBFF00BF2F
:10496C0080BD00BF2056000880B500AF0020FFF7C7
:10497C00FBFE0020FFF70AFF0020FFF719FF0020C5
:10498C00FFF728FF00BF80BD80B500AF0020FFF708
:10499C0057FF0020FFF766FF00BF80BD80B500AF5A
:1049AC000020FFF771FF0020FFF780FF0020FFF7CA
:1049BC008FFF0020FFF79EFF00BF80BD80B485B045
:1049CC0000AFF860B9601346FB71FB6800221A70E7
:1049DC00FB6800225A70FB6800229A70FB68FA7917
:1049EC00DA70FB68BA685A6000BF1437BD4680BCE9
:1049FC00704780B483B000AF78607B689B78002BE5
:104A0C000CBF01230023DBB218460C37BD4680BC1B
:104A1C00704780B483B000AF78607B689A787B680D
:104A2C00DB789A420CBF01230023DBB218460C370B
:104A3C00BD4680BC704780B586B000AFF860B960E9
:104A4C007A60F868FFF7E5FF0346002B28D1FB6876
:104A5C005A68FB685B7819460B465B000B449B005D
:104A6C0013447B617B69BA681A607B690433082242
:104A7C007968184600F086F9FB685B780133FA68B0
:104A8C00D27893FBF2F101FB02F29B1ADAB2FB68CB
:104A9C005A70FB689B780133DAB2FB689A7000E0BD
:104AAC0000BF1837BD4680BD80B582B000AF7860BE
:104ABC007868FFF79EFF0346002B22D17B685A686B
:104ACC007B681B7819460B465B000B449B00134418
:104ADC000C220021184600F009F97B681B78013381
:104AEC007A68D27893FBF2F101FB02F29B1ADAB2EC
:104AFC007B681A707B689B78013BDAB27B689A7092
:104B0C0000E000BF0837BD4680BD80B582B000AF65
:104B1C0078607868FFF76DFF0346002B01D0002307
:104B2C0009E07B685A687B681B7819460B465B006A
:104B3C000B449B00134418460837BD4680BD00004B
:104B4C00024B0146186800F025B800BF0C0000208D
:104B5C0070B50F4E0C463168054611B900F0CEF811
:104B6C0030602146284600F0C9F8431C03D14FF0B1
:104B7C00FF34204670BDC41C24F00304A042F8D0BE
:104B8C00211A284600F0BAF80130F2D1EFE700BF45
:104B9C00380400202DE9F843CD1C25F00305083519
:104BAC000C2D38BF0C25002D064601DBA94204D97B
:104BBC000C2333600020BDE8F883DFF8D48000F0CC
:104BCC0069F8D8F800301C4644BB29463046FFF73C
:104BDC00BFFF431C044658D1D8F800402746002F8D
:104BEC0043D1002C4BD023683946304604EB0309E3
:104BFC0000F084F8814542D1216830466D1A29466F
:104C0C00FFF7A6FF01303AD023682B442360D8F875
:104C1C0000305A6862BBC8F800700FE02268521B63
:104C2C0020D40B2A17D96119A342256018BF5960EB
:104C3C00636808BFC8F8001062514B60304600F042
:104C4C002FF804F10B00231D20F00700C21A1CBF23
:104C5C001B1AA350AFE76268A3420CBFC8F8002030
:104C6C005A60EBE723466468AEE73C467F68B6E7DC
:104C7C001A465B68A342FBD100235360DEE70C238A
:104C8C003046336000F00CF894E70560D6E700BFBF
:104C9C003C040020014800F06BB800BF7C050020EC
:104CAC00014800F066B800BF7C0500200EB46FF020
:104CBC00004100B59CB01DAB029006900791049189
:104CCC000848094953F8042B0591006802A901937F
:104CDC0000F00AF90022029B1A701CB05DF804EB7C
:104CEC0003B070470C0000200802FFFF034602448B
:104CFC00934200D1704703F8011BF9E738B5002344
:104D0C00054D044608462B60FBF716FF431C02D1E9
:104D1C002B6803B1236038BD78050020014B18685F
:104D2C00704700BF0C00002070B500260C4D0D4CD8
:104D3C00641BA410A64209D100F0C2FB00260A4D48
:104D4C000A4C641BA410A64205D170BD55F8043B57
:104D5C0098470136EEE755F8043B98470136F2E7E1
:104D6C008C5600088C5600088C560008905600088B
:104D7C0070477047034611F8012B03F8012B002AEA
:104D8C00F9D170470A44914200F1FF3300D17047CA
:104D9C0010B511F8014B914203F8014FF9D110BD38
:104DAC0038B50546002940D051F8043C0C1F002BA7
:104DBC00B8BFE418FFF76EFF1C4A136833B9636081
:104DCC0014602846BDE83840FFF76ABFA34208D9F3
:104DDC00206821188B4201BF19685B680918216093
:104DEC00EDE71A465B680BB1A342FAD9116850186B
:104DFC00A0420BD120680144501883421160E0D1CD
:104E0C0018685B68084410605360DAE702D90C2319
:104E1C002B60D6E7206821188B4201BF19685B68AC
:104E2C000918216063605460CBE738BD3C04002056
:104E3C002DE9F0471F468E688246BE420C469046CE
:104E4C000B682DD8B1F90C2012F4906F26D065693F
:104E5C00096905EB4505A3EB010905EBD5757B1C31
:104E6C004B446D109D4238BF1D46530527D529462E
:104E7C00FFF790FE064660B34A462169FFF782FFB2
:104E8C00A38923F4906343F08003A38126614E44ED
:104E9C0026603E466561A5EB0905A560BE4200D9BA
:104EAC003E4632464146206800F0ACFA0020A3682A
:104EBC009B1BA360236833442360BDE8F0872A461C
:104ECC0000F0C8FA06460028E0D150462169FFF7E9
:104EDC0067FF0C23CAF80030A3894FF0FF3043F072
:104EEC004003A381E9E700002DE9F04F98468B8938
:104EFC0007461B060D4614469DB010D50B6973B9B9
:104F0C004021FFF747FE2860286130B90C233B6035
:104F1C004FF0FF301DB0BDE8F08F40236B610023D4
:104F2C00099320238DF8293030234FF00109CDF857
:104F3C000C80DFF898818DF82A3023469A4613F8B6
:104F4C00012B0AB1252AF9D1BAEB040B0BD05B4625
:104F5C00224629463846FFF76BFF013000F0A78048
:104F6C00099A5A4409929AF80030002B00F09F805D
:104F7C0000234FF0FF32CDE905230AF1010A049317
:104F8C0007938DF853301A935446052214F8011BDD
:104F9C004E4800F051FA049AD8B9D00644BF2023E9
:104FAC008DF85330110744BF2B238DF853309AF8EA
:104FBC0000302A2B15D0544600204FF00A0C079ACB
:104FCC00214611F8013B303B092B4BD9B0B107926C
:104FDC0014E0A0EB080309FA03F31343A24604936D
:104FEC00D2E7039B191D1B680391002BBBBF5B42CF
:104FFC0042F0020207930793B8BF049223782E2B3A
:10500C000AD163782A2B32D1039B02341A1D1B68F8
:10501C00039243EAE3730593DFF8B4A003225046EE
:10502C00217800F009FA38B14022049BA0EB0A0069
:10503C00824013430134049314F8011B06222548C3
:10504C008DF8281000F0F8F9002836D0224B1BBB45
:10505C00039B073323F0070308330393099B334463
:10506C0009936AE70C4601200CFB0232A8E70023E7
:10507C004FF00A0C194601340593204610F8012B09
:10508C00303A092A03D9002BC6D00591C4E704464F
:10509C0001230CFB0121F0E703AB00932A463846B1
:1050AC000E4B04A9AFF30080421C0646D6D1AB8947
:1050BC005B063FF52DAF09982CE703AB00932A460E
:1050CC003846064B04A900F07DF8EDE74E56000873
:1050DC005456000858560008000000003D4E0008C9
:1050EC002DE9F047164698468A680B6907469342A5
:1050FC00B8BF1346336091F843200C46DDF820907E
:10510C000AB1013333602368990642BF3368023316
:10511C003360256815F0060506D104F1190AE36819
:10512C0032689B1AAB422BDC94F843302268003B6C
:10513C0018BF0123920630D44146384604F143028D
:10514C00C847013023D02368226903F00603042BDF
:10515C0014BF002533684FF0000608BFE56804F162
:10516C001A0408BFED1A54F8123C08BF25EAE5757D
:10517C009342C4BF9B1AED18B5421AD1002008E027
:10518C000123524641463846C847013003D14FF0FF
:10519C00FF30BDE8F0870135C1E73020E11881F818
:1051AC0043005A1C94F845102244023382F84310F1
:1051BC00C2E70123224641463846C8470130E6D0B3
:1051CC000136D9E72DE9FF470F7E9146782F8046AF
:1051DC000C469A460C9E01F1430207D8622F0AD85E
:1051EC00002F00F0D380582F00F0BA8004F1420653
:1051FC0084F842703AE0A7F16303152BF6D801A1AD
:10520C0051F823F0695200087D520008F95100084A
:10521C00F9510008F9510008F95100087D520008B5
:10522C00F9510008F9510008F9510008F95100082A
:10523C007F530008A752000839530008F9510008A1
:10524C00F9510008A1530008F9510008A7520008B1
:10525C00F9510008F95100084153000833681A1D30
:10526C001B68326004F1420684F8423001239EE050
:10527C0033682068191D3160060601D51D6803E0EE
:10528C004506FBD5B3F90050002D03DA2D236D42F2
:10529C0084F843300A23594811E021683368080622
:1052AC0053F8045B02D4490648BFADB26F2F33608C
:1052BC0014BF0A2308235148002184F84310666860
:1052CC00002EA8BF2168A660A4BF21F004012160B4
:1052DC000DB9002E4BD01646B5FBF3F103FB11575D
:1052EC00C75D06F8017D2F46BB420D46F4D9082B4D
:1052FC000BD12368DF0708D5236961689942DEBFAB
:10530C00302306F8013C06F1FF36921B22614B4616
:10531C0021464046CDF800A003AAFFF7E1FE01307C
:10532C004AD14FF0FF3004B0BDE8F087236843F05A
:10533C00200323607827324884F84570236831684D
:10534C001F0651F8045B02D45F0648BFADB2316052
:10535C00D90744BF43F0200323601DB11023ABE7F2
:10536C002648E9E7236823F020032360F6E7164676
:10537C00BDE733682568181D616930602E061B680F
:10538C0001D5196002E06806FBD51980002316468A
:10539C002361BCE7336800211A1D32601E68626805
:1053AC00304600F049F808B1801B606063682361E7
:1053BC00002384F84330AAE7324649464046236925
:1053CC00D0470130ADD023689B0713D4E068039B12
:1053DC009842B8BF1846A6E70123324649464046D4
:1053EC00D04701309DD00135E36803995B1AAB427D
:1053FC00F2DCEBE7002504F11906F5E75F5600082F
:10540C0070560008884210B501EB020402D98442A0
:10541C00234607D8431EA14208D011F8012B03F8EC
:10542C00012FF8E7014602448A4200D110BD13F85F
:10543C00014D02F8014DF7E7034610B5C9B202441D
:10544C009342184601D1002003E0047801338C42CA
:10545C00F6D110BD2DE9F041804615460C4621B918
:10546C001146BDE8F041FFF795BB2AB9FFF798FC50
:10547C0000242046BDE8F08100F01AF8854206466B
:10548C0002D8B5EB500FF4D829464046FFF782FB03
:10549C0007460028ECD0B5422A46214628BF3246A2
:1054AC00FFF770FC21464046FFF77AFC3C46E0E7EC
:1054BC0051F8043C181F002BBCBF0B58C018704788
:1054CC00F8B500BFF8BC08BC9E467047F8B500BFE5
:0854DC00F8BC08BC9E467047B5
:1054E40049646C65000000004368617267696E6717
:1054F400000000004469736368617267696E670045
:105504004C6F7373206F6620436F6D6D0000000055
:10551400000000006765742025732E747874000001
:1055240025732E7478743D222573220067657420D8
:1055340025732E76616C000025732E76616C3D25F3
:1055440064000000FFFFFF00686F6D652E626174E8
:10555400745F766F6C740000686F6D652E626174A1
:10556400745F637572720000686F6D652E6261749A
:10557400745F736F63000000686F6D652E736F63F3
:105584005F62617200000000686F6D652E62617475
:10559400745F73746174757300000000686F6D65E7
:1055A4002E636F6D6D5F737461747573000000001A
:1055B40070616765312E6D696E5F63656C6C760032
:1055C40070616765312E6D696E5F63656C6C765FC3
:1055D4006964000070616765322E6D61785F636590
:1055E4006C6C740070616765322E6D61785F636501
:1055F4006C6C745F6964000070616765322E6D695C
:105604006E5F63656C6C740070616765322E6D69E2
:105614006E5F63656C6C745F696400000000000079
:10562400000000000000000001020304060708094E
:105634000000000001020304020304050607080930
:105644000A0B0C0D0E0F10100102232D302B20001D
:10565400686C4C0065666745464700303132333428
:1056640035363738394142434445460030313233C8
:10567400343536373839616263646566000000008A
:08568400C8AAFF7F010000002D
:04568C0031010008E0
:045690000D01000800
:105694000024F400100000000100000010000020AD
:1056A4000000000040040020A80400201005002091
:1056B40000000000000000000000000000000000E6
:1056C40000000000000000000000000000000000D6
:1056D40000000000000000000000000000000000C6
:0C56E400000000000000000000000000BA
:0400000508000F4D93
:00000001FF
